:020000040001F9
:10C00000304600208DC4010095C4010097C4010092
:10C0100099C401009BC401009DC401000000000000
:10C020000000000000000000000000009FC40100AC
:10C03000A1C4010000000000A3C40100A5C40100C8
:10C04000A7C40100A7C4010009CD0100A7C40100D5
:10C05000A7C40100A7C4010031C50100A7C40100A5
:10C06000A7C40100A7C40100ADCC0100A7C4010012
:10C07000A7C40100A7C40100A7C40100A7C4010010
:10C08000A7C4010029C70100A7C40100A7C401007B
:10C0900019CA0100A7C401001DCA0100A7C40100FC
:10C0A000A7C40100A7C40100A7C40100A7C40100E0
:10C0B000A7C40100A7C401000000000000000000A8
:10C0C000A7C40100A7C40100A7C40100A7C40100C0
:10C0D000A7C40100A7C40100A7C40100000000001C
:10C0E0000000000000000000000000000000000050
:10C0F0000000000000000000000000000000000040
:10C10000000000000000000000000000000000002F
:10C11000000000000000000000000000000000001F
:10C40000DFF80CD000F082F80048004771E001002E
:10C4100030460020401E00BF00BF00BF00BF00BF6D
:10C4200000BF00BF00BF00BF00BF00BF00BF00BF14
:10C4300000BF00BF00BF00BF00BF00BF00BF00BF04
:10C4400000BF00BF00BF00BF00BF00BF00BF00BFF4
:10C4500000BF00BF00BF00BF00BF00BF00BF00BFE4
:10C4600000BF00BF00BF00BF00BF00BF00BF00BFD4
:10C4700000BF00BF00BF00BF00BF00BF00BF00BFC4
:10C4800000BF00BF00BFC5D170470000064880470D
:10C4900006480047FEE7FEE7FEE7FEE7FEE7FEE7A9
:10C4A000FEE7FEE7FEE7FEE741CA010001C4010026
:10C4B00040EA01039B0703D009E008C9121F08C026
:10C4C000042AFAD203E011F8013B00F8013B521EA6
:10C4D000F9D27047D2B201E000F8012B491EFBD21D
:10C4E00070470022F6E710B513460A46044619467F
:10C4F000FFF7F0FF204610BD034611F8012B00F8AE
:10C50000012B002AF9D1184670470000064C074D50
:10C5100006E0E06840F0010394E807009847103413
:10C52000AC42F6D3FFF770FF20F3010040F30100A7
:10C530002DE9FC5F0025DFF83491A8464FF48076A2
:10C5400001242F46304602F055F938B1D9F80403DA
:10C55000204203D0304602F043F92543361D6400E3
:10C560007F1CB6B2082FEDD34FF4BE74204602F004
:10C5700041F938B1204602F033F93D4845F0004515
:10C58000D0F800803B4E15F0FF0F14D00127002497
:10C590002F420CD009EB8401D1F81005D1F8101509
:10C5A000C0F3042056F82420C1F3014190477F00D6
:10C5B000641C082CECD3002D56DA00200190401E9C
:10C5C0004CE0701910F8501F90F9000021F0C004E1
:10C5D000401C38D0012000FA04FA1AEA090F32D0C0
:10C5E0004FEA911B204601F0BFFA56F82000009058
:10C5F00010B9BBF1030F26D15146BBF1030F02D195
:10C60000019808430190A00000F1A040D0F8000775
:10C610001AEA080FC0F3014002D0022802D012E04B
:10C62000032810D1BBF1030F07D102281AD0022131
:10C63000204602F0C7F87F1CFFB2009818B1009A9C
:10C640005946204690476D1C042DBAD3002F0BD0BD
:10C6500007480068404507D080460198002781467A
:10C660003D46AEE70321E3E7BDE8FC9F00600040E4
:10C6700010050050E41C00207CB50024012625464E
:10C6800006FA04F010F4F01F07D0012220460095AE
:10C6900000231146019502F04FF8641C202CEFD3C3
:10C6A00007494FF4F0100860081D05600221CDE92C
:10C6B0000051002208200123114602F03DF87CBD04
:10C6C0000805005000F01F02012191404009800040
:10C6D00000F1E020C0F88012704700F01F02012135
:10C6E00091404009800000F1E020C0F8001170473F
:10C6F00000F01F02012191404009800000F1E0207C
:10C70000C0F8001270474907090E002806DA00F049
:10C710000F0000F1E02080F8141D704700F1E020C8
:10C7200080F800147047000007480021C0F840114D
:10C73000C0F84411C0F84811C0F84C11C0F80011FD
:10C74000C0F8041102F066BB001001402DE9F0476B
:10C75000114F0446DDF8209038781D46164688466D
:10C7600008B900F0DBFA7869A04211D90A4904EB54
:10C77000440001EBC00134B1C1F84880C1E9136540
:10C780000020886548650020C1F85C90BDE8F0870E
:10C790004FF0FF30FAE70000A82500202DE9F04710
:10C7A000114F0446DDF8209038781D46164688461D
:10C7B00008B900F0B3FA3869A04211D90A4904EB6C
:10C7C000440001EBC00134B1C1F81880C1E907652C
:10C7D0000020886248620020C1F82C90BDE8F087F4
:10C7E0004FF0FF30FAE70000A825002070B5074B96
:10C7F0000646144618780D4608B900F08FFA22460E
:10C8000029463046BDE8704000F002B8A825002057
:10C8100070B50E46144900EB400001EBC00514460C
:10C82000E86A183520B101280FD0022805D113E09D
:10C83000284600F0A7FAA04201D2002411E02246C7
:10C840003146284600F0C4FB0BE0284600F09AFA77
:10C85000A042F4D20446F2E73146284600F08BFBB2
:10C860000446204670BD0000A82500200FB408B57E
:10C8700004A900916A46039900F003F801B05DF83D
:10C8800014FB2DE9F04198B0064607A8029040201D
:10C890000025CDE90305CDE9055690460C4614F870
:10C8A000011B002973D0252908D002A800F044FB01
:10C8B00005980028F3DA18B0BDE8F08100200122C5
:10C8C000217823291ED02B2919D02D2902D03029D7
:10C8D00008D102E040F0010001E040F00200641CD9
:10C8E000002AEDD100222178A1F130030A2B0CD2CD
:10C8F00002EB820201EB4202303A641CF3E740F0A3
:10C900000400ECE740F00800E9E70023CFB22E2F47
:10C910000BD114F8011FA1F130070A2F05D203EB48
:10C92000830301EB4303303BF3E76C290DD0682907
:10C930000BD0702954D00BDC252916D0582931D0C2
:10C9400063290CD0642913D114E014F8011BECE71F
:10C95000732934D075291BD0782909D122E0D8F861
:10C960000000011DC8F80010017802A800F0E4FAE8
:10C97000641C9DE7D8F800100F1DC8F80070096806
:10C98000CDE900200A2202A800F008FAF0E733E01F
:10C99000D8F800100F1DC8F800700968CDE9002014
:10C9A0000A2208E0D8F800100F1DC8F800700968C6
:10C9B000CDE90020102202A800F054FAD8E7D8F8F8
:10C9C0000000011DC8F80010076817F8011B0029B6
:10C9D000CED002A800F0B0FA05980028F5DAC7E733
:10C9E000D8F80000011DC8F8001001680820CDE942
:10C9F000000503461022DEE7059800287FF75BAFAD
:10CA0000049820B1024607A93046FFF7EFFEDDE9A2
:10CA10000410084405904EE702F098B9074810B595
:10CA2000406830B18047002807D0BDE8104000F0D2
:10CA300099BCBDE8104001F0B5B910BDF818002050
:10CA400070B58D480023021D0178101D01240629B0
:10CA500007D115782D0704D10578C5F30315032DEB
:10CA600002D0062904D00FE0854E844D75670EE094
:10CA700015782D0708D10578C5F30315032D06D0C9
:10CA8000042D04D0052D02D0062909D010E04FF066
:10CA90008055D5F844527B4EC5F34235356002E0EF
:10CAA00015782D0704D10578C5F30315032D02D0A1
:10CAB000062906D011E0744D2E6826F080762E608F
:10CAC0000EE015782D0708D10578C5F30315032D61
:10CAD00006D0042D04D0052D02D006290AD011E07D
:10CAE0004FF08045C5F80C31C5F81031654D2D1F4C
:10CAF0002B6002E015782D0704D10578C5F30315E6
:10CB0000032D02D0062905D00CE05E4A03216432D1
:10CB100011600AE015782D0704D10578C5F30315D7
:10CB2000032D02D006290DD06AE0584A0521116074
:10CB3000564978310C60554908310B603F21121D70
:10CB4000116002E0117809075AD10078C0F3031090
:10CB5000052855D14E4800684E4908604C48001DD4
:10CB60000068091D08604A4808300068091D08600F
:10CB700047480C300068091D0860454810300068BF
:10CB8000091D0860424814300068091D08604048CB
:10CB9000183000683F49203108603D481C3000686B
:10CBA000091D08603A4820300068091D08603848AF
:10CBB00024300068091D0860354828300068091DC8
:10CBC000086033482C300068091D08603048303058
:10CBD00000683049403108602D4834300068091D34
:10CBE00008602B4838300068091D086028483C3030
:10CBF0000068091D0860264840300068091D08606B
:10CC000021487438016841F470010160BFF34F8F0F
:10CC1000BFF36F8F4FF01021D1F80002002803DB23
:10CC2000D1F80402002822DA1B4A14601B48046869
:10CC3000002CFCD01524C1F800420568002DFCD062
:10CC4000C1F8044201680029FCD013600168002982
:10CC5000FCD0BFF34F8F0C48F0380168104A01F444
:10CC6000E06111430160BFF34F8F00BFFDE70E4944
:10CC70000C48086070BD0000E00F00F00DF0ADBA88
:10CC800000C007403C050040FCED00E010560040AD
:10CC90000404001020C5004004E5014000E4014008
:10CCA0000400FA050090D003B4180020F0B5134832
:10CCB000D0F84011124C4FF48023251F002269B197
:10CCC000D0F80413C90309D5C0F8402123602A60B5
:10CCD0000C4901260F7877B10A704E70D0F84411D4
:10CCE000002907D0D0F80413890303D5C0F84421E4
:10CCF0002B602260F0BD0E704A70EFE700A000408C
:10CD00000C050050701800200348007F08B102F0A5
:10CD1000A1B902F01BB900003C1D002010B5124C57
:10CD200002202061606111A0A061A4F58260E06131
:10CD30004FF4806020620020A06260620BA1A164B9
:10CD4000E062A4F11001E16410212165A065606535
:10CD5000E06509A1E01DFFF7CFFB08A12046FFF722
:10CD6000CBFB2020A07110BDA82500205465726D5A
:10CD7000696E616C000000005254540053454747EF
:10CD8000455200000269C1688A4203D88068401A8F
:10CD9000104400E0501A401E704700002DE9FC5F6F
:10CDA0000E008146DDE90C47C6F100009846934627
:10CDB000824600D40846012503E000BF90FBFBF04B
:10CDC0006D1C5845FADAA84500D9454624B1002E15
:10CDD00001DB780700D5641EB80702D5B8F1000F53
:10CDE0000FD0F8070DD164B1A5420AD220214846E0
:10CDF000641E00F0A1F8D9F80C000028F3DABDE8B1
:10CE0000FC9FD9F80C000028F9DB002E02DA564608
:10CE10002D2102E0780707D52B21484600F08CF839
:10CE2000D9F80C000028EADB07F0030002280FD134
:10CE3000B8F1000F0CD15CB1A54209D230214846AF
:10CE4000641E00F079F8D9F80C000028F3DAD6E770
:10CE5000CDE9004743465A463146484600F002F8BD
:10CE6000CDE700002DE9F84F8246DDE90A4B0126A7
:10CE7000984691460D460846374602E0B0FBF9F069
:10CE80007F1C4845FAD2B84500D947465FEACB70C7
:10CE900017D1B4B15FEA8B7002D5B8F1000F02D0A0
:10CEA000202000900BE03020FBE75046641E0099E4
:10CEB00000F042F8DAF80C00002838DB0CB1A74289
:10CEC000F3D3DAF80C00002831DB00BFB8F1010F12
:10CED00002D9A8F1010803E0B5FBF6F0484502D3FA
:10CEE00006FB09F6F2E7DFF84C8000BFB5FBF6F071
:10CEF00000FB165518F80010504600F01DF8DAF83F
:10CF00000C00002803DBB6FBF9F6002EEED15FEA39
:10CF1000CB700CD0002C0AD0A74208D2202150465A
:10CF2000641E00F009F8DAF80C000028F2DABDE817
:10CF3000F88F000010F3010010B50446D4E9013069
:10CF4000421C934205D323681954A260E068401C38
:10CF5000E060D4E90102824209D121682069FFF72B
:10CF600045FCA168884203D04FF0FF30E06010BD5F
:10CF70000020A06010BD2DE9F047C468174689461F
:10CF800006464FF000083069A04201D9051B02E0B7
:10CF9000B168201A0D1AB0686D1E001BA84200D897
:10CFA0000546BD4200D33D4670682A4620444946A6
:10CFB000FFF77EFAB0687F1B2C44A844A944A04226
:10CFC00000D10024F460002FDDD14046BDE8F08799
:10CFD0002DE9F041C6680446174688468068851BDF
:10CFE0006068BD4206D93044FFF762FAF019E0608C
:10CFF000BDE8F0812A463044FFF75AFA7E1B08EB61
:10D00000050132466068FFF753FAE660F0E702E098
:10D0100008C8121F08C1002AFAD1704770470020C3
:10D0200001E001C1121F002AFBD170472DE9FC5F0E
:10D030000025168807461580406B14468946A84689
:10D040004FF00C0A11234FF0020B98B101784846BB
:10D05000032E48D380F800B02288521C92B222805E
:10D0600083542288521C92B2228009F80210208830
:10D07000401C20803A6BDAB12088494600F1120545
:10D08000B54230D80B5420881023401C80B2208039
:10D090000B542088401C20800F202388155C401EE4
:10D0A000CD54238840B25B1C23800028F5DA454626
:10D0B00097F82E0030B133462246494600F0AAFECA
:10D0C000050011D197F82D0030B13246214648466F
:10D0D00000F0C8FA050007D1B87820B32088C84608
:10D0E000001DB04202D95046BDE8FC9F684679DF7A
:10D0F0000028F9D12188032008F80100208819218F
:10D10000401C80B2208008F800102088401C80B2AB
:10D11000208000EB0801BDF8000002F007F801468E
:10D12000208808442080F878B8B1228897F9031045
:10D13000D31C4846B342D6D800F802B02288012357
:10D14000521C92B2228083542288521C92B22280B6
:10D1500009F802102088401C20807868B8B1218826
:10D1600090F90020CB1C4846B342BCD800F801B06F
:10D1700021880A23491C89B2218043542188491CF3
:10D1800089B2218009F801202088401C208038893C
:10D1900050B1CDE900464B460622022107F10800B6
:10D1A00001F0FCFF05009FD1388A50B1CDE900465F
:10D1B0004B460722032107F1100001F0EFFF0500A5
:10D1C00092D1388B50B1CDE900464B46152214213F
:10D1D00007F1180001F0E2FF050085D1386A30B18F
:10D1E00033462246494600F01DFD0500DBD1786A32
:10D1F00030B133462246494600F0E0FF0500D2D167
:10D2000097F82C0038B1334622464946384601F09B
:10D210006DFC0500C7D1387838B1334622464946FF
:10D22000384600F0FDFF0500BDD128465CE7000050
:10D2300070B5144D41F20410042628801248A860ED
:10D240001720A880382105F10C00FFF74AF90024C7
:10D2500005F10C0021460470C670456200F0CEF95D
:10D2600008B100F07FF8074818214430FFF739F97A
:10D27000044803214430017044600472A0210182FB
:10D28000448270BD1C1C00208418002006480068E1
:10D290004FF40021044A8143121D1160111D00F456
:10D2A00000200860704700000405005070B500249D
:10D2B000064D06E06868012110F8340001F01AF804
:10D2C000641C28788442F5D3002070BDC01800206B
:10D2D000F8B515460C460646052A01D20720F8BDCA
:10D2E00001F0EAF818B901F0BDF80028F7D11049AB
:10D2F00000204E600C70C1E902500E4D08610DE037
:10D3000006EBC4006968009181788DF801100078FF
:10D31000094A694601F040F80028E0D1641EE4B2F1
:10D32000EED2BDE8F840054A0021024800F026B8D8
:10D33000C018002008F301004DDD0100ADDC010044
:10D34000BFF34F8F05480168054A01F4E0611143BE
:10D350000160BFF34F8F00BFFDE700000CED00E060
:10D360000400FA050EB500210091CDE901106A46CE
:10D3700044F20100FFF7E4FF0EBD0000074B9B687D
:10D3800023B12AB120B10068037C1BB1082070478B
:10D39000072070474174426100207047D418002074
:10D3A0002DE9F0478046994614460F4690074FF006
:10D3B000000634D11C4D8CB301F0BCFA0320C5F833
:10D3C0001490287004F11800002107EB4703AC60AB
:10D3D00004EBC102491C167056709770506000EB48
:10D3E000C3000329F4DBEE606E70AE701420FFF70B
:10D3F00069F906211420FFF786F91420FFF76DF96B
:10D400000A49C1F8008006211120FFF77CF907487E
:10D41000001F006828610020BDE8F08701E00720B8
:10D42000FAE7AE60FBE70000D418002008150140C1
:10D430002DE9F843DFF870900D461746D9F808102B
:10D44000044651B34CB3052D02D20720BDE8F88342
:10D45000606910B3607C012821D0002601F06BFECA
:10D46000D9F80810804601EBC800694601F082FE39
:10D47000B8B1012100F8041B0C4910C0096880E80C
:10D48000E200D9F8081001EBC8009DF800104170C7
:10D490001420FFF72DF90020D8E70820D6E72E4604
:10D4A000DCE70420D2E70000D41800200415014076
:10D4B000F8B5124E0446B168E1B1DCB16069C8B19B
:10D4C0000027277401F037FE0546B068694600EB77
:10D4D000C50001F04FFE78B1022101704460B068D0
:10D4E0009DF8001000EBC50041701420FFF700F913
:10D4F0003846F8BD0820F8BD0420F8BDD418002037
:10D5000070B588B0154604461E4620221A49684662
:10D51000FEF7CEFFA0680690207900B101208DF8BB
:10D5200014008DF81C60607900B10E208DF8150094
:10D53000E0780290A07803902078019060780090C5
:10D540000E480021456081702079022809D00C49DD
:10D55000684600F0BBFF002804D19DF81D0018B1FB
:10D5600004E0062008B070BD01F040F80348012136
:10D57000401C00F0F5FFF5E7C8F20100B8180020E4
:10D58000F5EE01002DE9F04104460078184F012620
:10D5900006FA00F03860206801F00AF9002160689E
:10D5A00001F0FDF81348144D007FA069C5F824056B
:10D5B000607D217D0843C5F86C05D4E90001C5F8FC
:10D5C0000C05C5F81415207D01280FD10021A06895
:10D5D00001F0E5F8207B86403E60E06801F0E8F865
:10D5E000D4E90201C5F80815C5F81005BDE8F081B9
:10D5F000080500503C1D002000200040F0B50C46FE
:10D6000093B01F210726ADF80010ADF804100027D5
:10D6100050B1C17849070DD56A4602A9FFF706FD4A
:10D62000002808D102AD02E00025ADF800706CB111
:10D63000E07810B1304613B0F0BD01AA0AA9204627
:10D64000FFF7F4FC0028F6D10AAA02E00022ADF8A8
:10D650000470BDF80400C3B2BDF80000C1B2284692
:10D6600072DFE8E77CB5054608880C460930904231
:10D6700001D90C207CBD684671DF0028FAD12188D1
:10D680000820685420881B21401C80B22080295427
:10D690002088401C80B220802844DDF80110016001
:10D6A000BDF8051081802088801D80B220809DF803
:10D6B000001001B1012129542088401C2080002045
:10D6C0007CBD01F0D3B8000000B5154887B0002339
:10D6D000006805904822134905A801F0E9FA08B14D
:10D6E000FFF740FE00216A46084601F0CBFA08B178
:10D6F000FFF738FE0C4801F06FF908B1FFF732FE72
:10D70000684601F041FA08B1FFF72CFE074801F026
:10D7100031FA002801D0FFF725FE07B000BD000058
:10D720006CF201000C19002070180020C3D6010013
:10D730002DE9F04707460024244802E0641C042C2D
:10D7400041D250F82420BA42F8D1042C3BD21F48D1
:10D75000DFF87C901F4E0C38A9F1140841B3012961
:10D760000FD002292FD104EB440030444578002D1E
:10D7700029D0D8F81010002925D02846BDE8F04758
:10D78000084704EB4401755C0E44717861B1D8F828
:10D7900004100F4A01EB81014900133A8068FFF73A
:10D7A00047FE08B988F80170B17809F80410DEE77F
:10D7B0008068FFF77DFE04EB4401314419F8040052
:10D7C0008D78A842D3D0BDE8F087000098F2010020
:10D7D000B0180020B81C002070B50023042810D217
:10D7E0000D4D00EB4004012A02D101290CD000228A
:10D7F000094E00EB4000304461B1012906D00229F6
:10D8000006D00723184670BD0D30C2B22A55F9E77D
:10D810004270F7E78270F5E7B81C0020044A014621
:10D820000020127AD20702D0084600F055B870479F
:10D830009C18002070B50E462149054600200A615B
:10D84000C1E90165A9071BD5002401221146204624
:10D85000FFF7C2FF641C042C02D20028F5D00FE0B1
:10D8600070B9720804211748FFF732FD40B9FFF77D
:10D870001DFD28B91348144A00211438FFF77EFD16
:10D88000E9070AD0114A4FF4F01111600F4B002242
:10D890001B1D1A600D4A1032116000280FD1094873
:10D8A0000B4A00211C38FFF769FD002807D1BDE8AD
:10D8B000704004480121074A1838FFF75FBD70BD6A
:10D8C0009C180020A8F20100FDDA010008050050B4
:10D8D00069DE01008DD201002DE9F84F854EDFF899
:10D8E00010A24FF4E01CF16807462CEA010C0091ED
:10D8F000002071680AF10404251D7F4B4FF40032AB
:10D900004FF4802B01EB810E8146182F16D2DFE8F1
:10D9100007F00C17173A4E607083868F868FEAA047
:10D92000A0A0A0A0CAD1D8E1EAEA009A4FF4F01171
:10D9300091432160C5F8009086F80090BDE8F88F0B
:10D94000C4F800C04846C5F80090DAF800C08CF46E
:10D95000F01C5FEA8C3C09D522602860022F02D1BE
:10D960004FF4E16008E04FF47A6005E02A6020603F
:10D97000022F3CD04FF4C8706422B0FBF2F0414358
:10D98000377000225EE0C4F800C04846C5F8009039
:10D99000DAF800C08CF4F01C5FEA8C3C04D52260FD
:10D9A00028604FF44870E7E72A6020601FE0C4F861
:10D9B00000C04846C5F80090DAF800C08CF4F01CAE
:10D9C0005FEA8C3C02D522602860CCE72A602060A8
:10D9D000D0E7C4F800C04846C5F80090DAF800C0A7
:10D9E0008CF4F01C5FEA8C3CDED522602860C820F5
:10D9F000C2E7C4F800C04846C5F80090DAF800C095
:10DA00008CF4F01C5FEA8C3C02D52260286001E0B7
:10DA10002A602060377014E0C4F800C04DE0DAF8E6
:10DA200000002BEA0002226000F48020286008E059
:10DA3000DAF800002BEA0001216000F48020286061
:10DA4000714600221868BDE8F84FFFF7F1BC21606D
:10DA50002EE098465868FFF72BFDD7F1110100D052
:10DA600040B1F16801F4F0112160C5F80090C6F8EA
:10DA70000C9063E74FF40022F26001290CD9C82012
:10DA800011FB00F16420B1FBF0F17068002241430A
:10DA9000D8F80400FFF7CCFCF16801F4F01129601C
:10DAA000C4F800904AE74FF4F0112160C5F80090E7
:10DAB000377043E74FF4E01121604946C5F8009004
:10DAC00006E04FF4D01121604946C5F800905A464F
:10DAD0002A60BCE74FF4C01121604946C5F80090A8
:10DAE0004FF4C022F4E74FF4F01129604946AEE745
:10DAF000040500509C1800208CF2010000780221DF
:10DB0000FFF716BE05494FF0FF32082841F82020E4
:10DB100002D3084480F8482070470000E41C00202D
:10DB2000F0B54FF0FF3512B10023082601E00823BD
:10DB30000C260C4C05E000BF54F823707F1C04D069
:10DB40005B1CB342F8D32846F0BD26185DB286F8B8
:10DB5000305044F82310002AF5D1E11881F848002C
:10DB6000F1E70000E41C00200249084490F930006D
:10DB700070470000E41C00202DE9F05F2648C168D2
:10DB8000F1B3DFF898B00E688146DBF80040076912
:10DB9000C078E11B21F07F45ED1CB0B9DFF8808033
:10DBA0004FF48030C8F84403C8F804031120FEF78E
:10DBB00089FD1120FEF791FD4FF0010AC8F800A081
:10DBC0002F20FEF727FC89F803A0B54200D2354686
:10DBD000124BE8193C3320F07F401860DBF800104E
:10DBE0005A46091B21F07F41001B20F07F40C91CD1
:10DBF00081420FD9106818602F20FEF70BFC00E05F
:10DC000004E0BDE8F05F1120FEF772BDBDE8F05FF3
:10DC100000F090BEBDE8F09FD4180020041501402C
:10DC2000001001402DE9F04117880646B81D144642
:10DC30000D46984202D90C20BDE8F08131880722B8
:10DC400006290AD34FF4486C4FF6FF73614501D99A
:10DC5000994202D17088062801D21046ECE760454F
:10DC600001D99842F9D1994203D0984201D081421A
:10DC7000F3D80520E85520881221401C80B220806E
:10DC800029542088401C80B220804119308801F03E
:10DC90004DFA2188084480B220804119708801F033
:10DCA00045FA2188084420800020C5E72DE9F0418D
:10DCB00000260125144C22E06068226900EBC607AB
:10DCC000387805FA00F1114217D08A43226100F03A
:10DCD000BFFB02463878E36805FA00F1194002FA02
:10DCE00000F3994209D17978012901D0012100E09E
:10DCF000002151407A6802B19047761CF6B2207834
:10DD00008642D9D3BDE8F081C01800200E4910B575
:10DD10004A788C780023A24212D0521CD2B24A70A8
:10DD2000022A00D14B70084A4B78183252F823204F
:10DD300002600869104420F07F400861012010BD96
:10DD40000360002010BD0000D41800202DE9F04130
:10DD5000124E07460125BD403068FFF7A9FB002899
:10DD60000DD10F4C2069284207D1384600F070FBD6
:10DD70000028E06805D0284304E0A8432061BDE8FE
:10DD8000F081A843E060206928432061A1683068E1
:10DD9000BDE8F0410022FFF74BBB000008F3010093
:10DDA000C0180020F8B51A4C207800282ED0206921
:10DDB00028B10026E06820B1002526B110E0012638
:10DDC000F8E70125F9E7684652DF052803D020B1BE
:10DDD000FFF7C8FA04E0012602E0216900988847AD
:10DDE00085B96088ADF800006946A06861DF052844
:10DDF00003D020B1FFF7B6FA04E0012502E0D4E930
:10DE000002018847002EDED0002DD6D0F8BD0000DC
:10DE1000F818002030B51488E51C9D4201D90C206B
:10DE200030BD02250D5513881C245B1C9BB213804A
:10DE3000CC5413885B1C9BB21380012807D00228A6
:10DE400007D0032807D0042807D0072030BD0020C2
:10DE500004E0012002E0CD5401E00320C854108802
:10DE6000401C1080002030BD0348017AC90702D051
:10DE70000078FFF731BD70479C1800202DE9F0476E
:10DE8000DFF8ACA0DAF80C009AF8004080469AF867
:10DE90000460DAF80890DAF810703AE009EBC4058B
:10DEA0002A7833E002EB42016B68521C03EBC1019C
:10DEB000AB78D2B2934200D100220B78022B02D071
:10DEC000032B23D11FE0D1F804C00346014603E031
:10DED000614503D00B46C969C1B1F9E7B1B18B42C5
:10DEE00005D1C06918B9134F0126BE600027D1F8CB
:10DEF00000C0C969D96149B10B6863440B6005E092
:10DF00000174C06900E000210028F9D169789142CC
:10DF1000C8D1641EE4B2C1D2CAE903078AF804601A
:10DF2000404502D00120BDE8F0870020FBE700005B
:10DF3000D4180020001001402DE9F04705462F4875
:10DF4000002680460778D0F80C904BE0D8F80800FF
:10DF500000EBC70440E002D02846ED691EE02078BF
:10DF6000616800EB4002401CC0B201EBC2012070AE
:10DF7000A278904200D126700A784868012A2DD1F3
:10DF8000027C5ABB8A684260CA6882600A69C260C1
:10DF90004969816198F8041001B146604268D8F877
:10DFA0001030DFF85CC0D11A21F07F41614502D208
:10DFB0008268114406E0991A826821F07F418A4202
:10DFC00002D9511A016000E00660466001218660B6
:10DFD0000174C66100F000FF002DBCD1207861788B
:10DFE0008842BCD17F1EFFB2B0D2D8F80C10494590
:10DFF00002D00120BDE8F0870020FBE7D418002004
:10E00000FFFF7F0038B50D4C207808B1002038BDE7
:10E010000125AB020A4A0BA100200095FEF7BEFBCA
:10E0200038B900201023094A09A10090FEF78EFBA1
:10E0300008B1082038BD2570E8E70000F41800207A
:10E04000871D00204E6F726D616C000087210020DB
:10E05000496E7075740000000FB408B504A90091F2
:10E060006A460399FEF70DFC01B05DF814FB000051
:10E07000494A88B004AB07CA83E8070047480090C4
:10E0800001200190464802904FF4807003900623CF
:10E09000444A694604A8FFF733FA0023424A05219F
:10E0A0001846FFF77DF908B1FFF75CF9002240F64A
:10E0B000CD410120FFF7BEFB08B1FFF753F9FFF791
:10E0C00003FBFEF7D9FA00F019FEFFF7B1F8374865
:10E0D00073DF08B1FFF746F90220FFF79FFB08B195
:10E0E000FFF740F9DFF8C4B0DFF8C4902B4D0027EC
:10E0F000ABF1440B4FF48018A9F1040A12350BF16F
:10E100000C06264CA41E207820B1234810388ADF44
:10E11000207800B98BDF2648001D00686178C0F3C5
:10E1200000200029EDD000286068C07906D040F0BA
:10E1300008002870C9F80080504605E000F0F7009C
:10E140002870CAF8008048460760CBF80850C6F827
:10E1500024B0BBF9000000210312C2B25C4608469D
:10E1600015F800C0401C61441628F9DBC81810449B
:10E17000C11700EB516121F07F01401AC2B2AA75AC
:10E180000CA10020FEF772FB0848002138387462A9
:10E19000FFF734FAB5E7000080F2010072180020A2
:10E1A00054190020E1EE0100541A0020601C0020E8
:10E1B0000C0500502D2D30782578000070B51446E0
:10E1C00082880E4605462088111D0144921C994202
:10E1D00001D8FE2A01D90C2070BD521C325420886F
:10E1E000FF21401C80B2208031542088401C80B226
:10E1F00020808119288800F099FF2188084480B286
:10E200002080AA8842B1A96841B13044FEF750F994
:10E210002088A98808442080002070BD072070BD98
:10E22000F8B50E46017814460546012901D16878F3
:10E2300030B12088821C9A422DD8012902D006E0F4
:10E240000720F8BD69780144891C994223D8181A1F
:10E25000801E87B2ADF800702188B01C0844694662
:10E260007DDF0028EDD12878022805D1BDF8001007
:10E27000B94201D809210AE00821012805D16878AE
:10E28000B84202D8ADF8000001E0ADF80070BDF86A
:10E290000000FE2801D90C20F8BD2288401CB05493
:10E2A0002088401C80B2208031542088401C20806F
:10E2B000BDF80010084420800020F8BD4907090E71
:10E2C000002806DA00F00F0202F1E02282F8141DA5
:10E2D00003E000F1E02282F8001400F01F020121A7
:10E2E00091404009800000F1E020C0F88012C0F8A1
:10E2F000001170472DE9F0478846814600F0FAFA90
:10E300000124224E0028484618D0FFF72DFC304447
:10E3100090F848008009032802D0012806D007E0C1
:10E320001B48006804FA09F4204201D1022100E0F0
:10E3300003214846BDE8F04700F044BA00F0E6FA91
:10E34000002820D04846FFF70FFC0546114F4FF438
:10E35000807007EB850100EB8500D1F8102580B2B5
:10E3600042F00102C1F8102500F03AFAB8F1000FAE
:10E3700009D04846FFF7F8FB56F82000002802D0E5
:10E38000AC40C7F80443BDE8F0870000E41C00205F
:10E3900010050050006000402DE9FC41DFF8A4802A
:10E3A000044608EB0400002790F930001346C0171C
:10E3B0000E46401C01D0082740E0F278194620465E
:10E3C000FFF7AEFB0546401C37D0B07848B1A0003F
:10E3D00000F1A040D0F8001721F00201C0F80017AA
:10E3E00007E000217378204600910A46019100F071
:10E3F000B4F9F078C0B11448317800EB8500D0F85A
:10E400001025124B1A40C0F810254FF4F8524FF463
:10E41000403302EA042203EA01410A43D0F810150E
:10E420000A43C0F8102509E008EB0500327810F81F
:10E43000481F41EA8211017000E004273846BDE818
:10E44000FC810000E41C002000600040FFE0FCFFB5
:10E4500003490968C14011F0010000D00120704754
:10E460001005005070B5124D95F8540008B1082001
:10E4700070BD0020411E2A18401CC0B282F8301026
:10E480002028F8D300242046FFF73CFB641CE4B2AC
:10E490000C2CF8D306210846FFF710FF05494FF072
:10E4A0000040C1F80403012085F85400002070BD2D
:10E4B000E41C002000600040034890F8540000284D
:10E4C00000D0012070470000E41C00202DE9F0413D
:10E4D0001E4C07460D46E07E10B10820BDE8F081D5
:10E4E00007B91B4F787F20773846FFF74BF86560F8
:10E4F000386920602800174E4FF0000516D0397F8C
:10E50000207F48B1C6F81051C6F82051C6F82451F2
:10E51000C6F84451104804E0C6F81C51C6F84451EE
:10E520000E48C6F804030220FFF7C8FE207F08B19A
:10E53000082000E00420C6F80005E5752576A575DD
:10E540000120E076A5760020C8E700003C1D0020F1
:10E55000E8F20100002000401003020080000200E9
:10E560002DE9F0411F4B1C7F3CB14FF40052B2EB40
:10E57000104F02D01020BDE8F081D3F804C0002273
:10E58000194D4FF404764FF40177BCF1000F05D01C
:10E5900014B1C5F8086301E0C5F8087393F817E0F3
:10E5A000BEF1000F10D01A7E52B1BCF1000F05D0A1
:10E5B00014B1C5F8046301E0C5F804731120DAE76B
:10E5C00018610122197604E0D9750025D8605D76BE
:10E5D0001D761CB1BDE8F04100F066B8BDE8F04121
:10E5E00000F014B83C1D00200020004010B5064C7F
:10E5F000207F002806D1A07E002803D100F0E0F99A
:10E600000120A07610BD00003C1D00202DE9F05F28
:10E61000234DA87E104301D100F0D2F9214C686847
:10E6200030B14FF40170C4F804030020BDE8F09F3E
:10E630004FF000094FF4A27AC4F844914FF4927B52
:10E64000A8465946204600F0DDF805464FF484718F
:10E65000204600F0D7F807465146204600F0D2F891
:10E66000064647EA06012943EBD055EA060007D1E2
:10E6700000F07EF998F8171098F819008142E0D858
:10E6800088F817900DB10320D0E70EB10F20CDE729
:10E6900098F81A10012009B12060C6E76060C4E74D
:10E6A0003C1D0020002000402DE9F05F204C00269A
:10E6B0004FF48873C4F810614FF4A275C4F8446134
:10E6C000C4F83405C4F838158AB1D4F8000240F013
:10E6D0002000C4F80002DFF85C80D8F8040048B1DC
:10E6E0004FF40470C4F804030020BDE8F09F01203B
:10E6F0002060F0E79A46A9464FF4927B51462046A7
:10E7000000F08BF805464946204600F086F807469B
:10E710005946204600F081F83D430543EED088F885
:10E72000176008B10320E0E7002FDDD00F20DCE701
:10E73000002000403C1D002030B541EA4201DDE9E7
:10E74000034541EA8301800041EA042100F1A04031
:10E7500041EA0541C0F8001730BD30B541EA420139
:10E76000DDE9034541EA8301800041EA042100F12B
:10E77000A04041EA0541C0F8001730BD30B541EA7C
:10E780004201DDE9034541EA8301800041EA0421B9
:10E7900000F1A04041EA0541C0F8001730BD1CB5AA
:10E7A00000220B46009211460192FFF7E7FF1CBDC5
:10E7B0001CB5002100910B46012201911146FFF783
:10E7C000DDFF1CBD800000F5E06000F1A0400268A4
:10E7D00022F440320260026842EA0141016070475F
:10E7E000034908B50844002101600068009008BD95
:10E7F0000060004002494058012800D000207047C6
:10E80000006000404058002800D001207047D0F838
:10E810000403084000D0012070474058002800D071
:10E8200001207047104B10B500F111011960007CF8
:10E830000022C4089C804879032814D188791128C3
:10E8400011D105200B5C401C1A441E28FADB7F20E6
:10E8500092FBF0F300FB13208A7F824203D102482F
:10E860000C38C0E9011410BD7C18002010B50288D6
:10E87000011D1B2A1ED00CDC102A24D0112A22D103
:10E880008BDF082802D008B1FEF76CFD0E488ADF46
:10E8900006E01D2A0AD01F2A15D131F8040B75DFB6
:10E8A000002810D0BDE81040FEF75CBDBDE8104068
:10E8B000FFF7B8BF0879032805D1BDE8104003A1D0
:10E8C0000020FFF7C9BB10BD70F201005B41505042
:10E8D0005D3A20436F6E6E656374696F6E2052659A
:10E8E00071756573742074696D6564206F75742E1D
:10E8F0000D0A00000449084490F93000082801DBA3
:10E900000120704700207047E41C0020044908449F
:10E9100090F93000082801D201207047002070478C
:10E92000E41C00204FF08050D0F80C01800200F170
:10E930000050704770B5012670044FF0E0210025AB
:10E94000C1F88001084C4010C4F84803C4F808031B
:10E9500066602F20FDF75EFDA660044C2F20256128
:10E96000FDF758FDE57070BD00100140D41800207F
:10E9700009480A490022C37DC1F8082143B1D1F8F2
:10E980001815437EC268D154417E491C41767047B8
:10E99000D1F81805704700003C1D00200020004001
:10E9A0001FB501228DF8080004488DF80020019160
:10E9B000D0E90012684690471FBD00003C1D0020B2
:10E9C00004480021C0F82411C0F808110121016099
:10E9D000704700000020004038B504460948009008
:10E9E000A0420DD0FFF79EFF0546234606A100205A
:10E9F000009AFFF731FB2A1B10A10020FFF72CFB28
:10EA0000002038BD7018002052414D20535441520F
:10EA100054204144445220307825782073686F7523
:10EA20006C642062652061646A7573746564207427
:10EA30006F20307825780D0A0000000052414D20EB
:10EA400053495A452073686F756C64206265206174
:10EA5000646A757374656420746F2030782578203B
:10EA60000D0A000010B50121202803DA1D4A81405B
:10EA7000114004E0402803DAA0F12002914041B1A6
:10EA8000002809DA00F00F0101F1E02191F8141DCE
:10EA900006E042F2010010BD00F1E02191F80014FF
:10EAA0004909082914D299B1012911D004290FD09C
:10EAB00005290DD00C4A946800F01F0301219940EC
:10EAC000400944B152F820300B4342F8203007E0AF
:10EAD00042F2020010BD800000F1E020C0F80011F9
:10EAE000002010BDFC06FFBC202600202DE9F041CF
:10EAF0000746806A14468846C8B3002531E000BF47
:10EB0000B96A05EB450001EB8006B088801CFE2841
:10EB100002D90C20BDE8F0812288401C08F80200D0
:10EB200020881622401C80B2208008F8002020880F
:10EB3000401C80B2208000EB0801308800F0F6FA1B
:10EB40002188084480B22080B28842B1B16871B196
:10EB50004044FDF7ADFC2088B188084420806D1C3E
:10EB6000EDB297F82C00A842CAD80020D2E7FFE700
:10EB70000720CFE718B10349C860002070470E2076
:10EB800070470000F81800207CB504461348019037
:10EB90000246009012A10020FFF75EFA6946204667
:10EBA00060DF0446DDE9000188420ED0FFF7BAFEBF
:10EBB000054614A10020009AFFF74EFA009820A104
:10EBC0002A1A0020FFF748FA06E02CB1224626A1B7
:10EBD0000020FFF741FAFEE720467CBD70180020B8
:10EBE00073645F626C655F656E61626C653A20524A
:10EBF000414D20535441525420617420307825787F
:10EC00000D0A000073645F626C655F656E61626C23
:10EC1000653A206170705F72616D5F62617365203B
:10EC200073686F756C642062652061646A757374C3
:10EC3000656420746F20307825780D0A000000008C
:10EC400072616D2073697A652073686F756C6420DA
:10EC500062652061646A757374656420746F203026
:10EC6000782578200D0A000073645F626C655F652B
:10EC70006E61626C653A206572726F722030782521
:10EC8000780D0A0070B50E4605461446142110464C
:10EC9000FDF727FC012020800021216121732672CD
:10ECA000657205B1A072002070BDFEF749BB00007F
:10ECB0002DE9F0411D4616460C460746FFF7A2F91E
:10ECC0000CB1A00702D00720BDE8F0812046094C16
:10ECD0004FF0010E0849A06066803846656010DF7D
:10ECE0000028F1D184F800E0BDE8F0411620FFF7DC
:10ECF000B9BE0000F8180020ABEC0100104810B5B8
:10ED0000002101600F480122C2600D4C0F230C341A
:10ED100023600B4B1B1D1960094B0B493C331960D9
:10ED20001B1D4FF4FA7119604FF44031C0F8041301
:10ED30004FF0E0230115C3F80011026010BD000080
:10ED400004A5004000A0004020A107002DE9F84FD5
:10ED5000204C00256846D4E903B6FEF7D7FF80466D
:10ED6000FFF78CF80746A946B8F1000F25D000231D
:10ED7000009ACC46E06819E007680146974202D93C
:10ED8000BA1A026014E0C1F800C0D1F80C80D21B9E
:10ED9000C8693B448A46B8F1000F07D0F71827F03E
:10EDA0007F47C1E90178CAF81C500D460028E3D11D
:10EDB000E0602846FFF7C0F804E02846FFF7BCF8FB
:10EDC00000B917B15846FEF7D7FE84F80490BDE8A5
:10EDD000F88F0000D41800200D4B10B5D96831B160
:10EDE00002680C68A24204D8A21A0A60C161D86005
:10EDF00010BD0B4603E00B46C969121B21B10C681C
:10EE00009442F8D3A41A0C600260C161D86110BDAD
:10EE1000D41800202DE9F0411D4DEC68002C35D0B0
:10EE20001C48002700682969B846401A20F07F4630
:10EE30002068B04215D82246361A0744E469107C8F
:10EE400068B182F810806B6933B1D2E90501984747
:10EE500028B1FEF787FA02E0D2E905108847002CB6
:10EE6000E6D16978A878814206D1401CC0B2A8706A
:10EE7000022801D185F802800548A978183040F8A9
:10EE80002170BDE8F0411420FDF732BCBDE8F081EF
:10EE9000D418002004150140064A0020C2F81C01C5
:10EEA0000548838A8168C95C838A5B1C8382C2F8B7
:10EEB0001C157047002000403C1D00201FB500219C
:10EEC0008DF8080005488DF8001082680192817560
:10EED000D0E90012684690471FBD00003C1D00208D
:10EEE0000178022901D0012902D14068FEF73ABA1F
:10EEF000704700001CB50178134C012907D0022986
:10EF000014D000291FD103208DF8000018E004213F
:10EF10008DF800104068012100788DF804000A483F
:10EF2000401CFFF71DFB0120A07009E002218DF8B5
:10EF30000010C068019004480121401CFFF710FB3D
:10EF40006168684688471CBDB81800202DE9FF415C
:10EF50003E4D4FF400712846FFF759FC01273C4C09
:10EF60004FF40178002600B34FF492712846FFF762
:10EF700049FCD0B1C5F82461C5F80883A07E00B96A
:10EF80006F6002208DF80000D5F88004C5F8800479
:10EF90000390E07D8DF80800E0680190E675267624
:10EFA000D4E900126846904724E004212846FFF780
:10EFB0002EFCF8B14FF484712846FFF723FCC8B14A
:10EFC000FFF7D6FCE07D617E884213D1227E3AB104
:10EFD000607EE168E2752269E2602676667607E087
:10EFE000A07E00B96F60C5F80883E675607EE168B1
:10EFF000FFF7D6FC4FF48E712846FFF703FC58B19B
:10F00000A18AA07D814202D2FFF746FF04E0C5F845
:10F010001C6108B1FFF752FF4FF4A2712846FFF7B9
:10F02000F1FB00280FD0C5F84461A07E00B12F602D
:10F03000E07D002807D0E675607EE16804B0BDE899
:10F04000F041FFF7ADBCBDE8FF81000000200040AB
:10F050003C1D00207FB5334C4FF492712046FFF7E2
:10F06000DCFB314D0026B0B1C4F8246102208DF8DC
:10F070000000D4F88004C4F880040390D4F83C0560
:10F080008DF80800E8680190EE752E76D5E900123B
:10F09000684690471FE04FF488712046FFF7BDFB9C
:10F0A000C8B1C4F81061D4F83C05E97DC0B2814212
:10F0B00011D12A7E5AB1E968D4F8003223F0200336
:10F0C000C4F80032EA752A69EA602E7601E0EE752E
:10F0D000E968FFF765FC4FF4A2712046FFF79DFB3E
:10F0E00050B1C4F84461E87D30B1EE75D4F83C0508
:10F0F000E968C0B2FFF754FC4FF490712046FFF767
:10F100008CFB00280CD0C4F82061A87D002807D013
:10F11000D4F84C0504B0C0B2BDE87040FFF7CEBED5
:10F120007FBD0000002000403C1D00200870000A48
:10F13000487002207047EFF30580C005C00D13D062
:10F14000103840B2002806DA00F00F0000F1E0208D
:10F1500090F8140D03E000F1E02090F8000440095D
:10F16000022803D0062803D00220704700207047F1
:10F170000120704742788378521CD2B2934200D16A
:10F1800000220378934201D1002070470A70416841
:10F19000407800EB400001EBC00070472DE9FC41D6
:10F1A0001646DDE90854CDE900541F468046022288
:10F1B00000F00CF8002807D1CDE900543B4610229E
:10F1C0003146404600F002F8BDE8FC812DE9FC5FC5
:10F1D0000026DDE90C4B994692468E4680462788EC
:10F1E000354630E0D8F80400002200EB850069467F
:10F1F0000068019001A865DF002830D19DF800006B
:10F2000050451FD10EB1002100E0022122880844A0
:10F210001118594522D846B9521C90B2208009F8DD
:10F2200000E02088401C20800126218801A801EBF5
:10F230000902694665DF002811D120889DF8001079
:10F24000084420806D1CB8F80000A842CADC56B102
:10F250002088C01B401E80B2FF2802D90C20BDE8C8
:10F26000FC9F09F807000020F9E7000001000007F3
:10F2700000000000000000002003900100000000DA
:10F28000080605070000000000502700781C002039
:10F29000981C0020C41C00200D0000000E0000007F
:10F2A0000F000000100000000D00030031D7010026
:10F2B0000E00030031D701000F00030031D7010019
:10F2C0001000030031D70100060000000800000014
:10F2D0000700000005000000000000000000000022
:10F2E0000000D60106000000060000000800000033
:10F2F0000700000005000000000000000000000002
:10F300000000D601060000005C1D00200300000084
:10F31000303132333435363738394142434445464B
:10F3200040F30100701800209C0000000ED0010086
:10F33000DCF301000C190020242D00001ED0010078
:10F3400000000000000000000000000000000000BD
:10F3500000000000020001020000000000000000A8
:10F3600000000000000001020304C30000000000D0
:10F37000000000000000000000000000000000008D
:10F38000000000000090D00300000000000000001A
:10F39000000000000000000000000000000000006D
:10F3A000000000000000000000000000000000005D
:10F3B000000000000000000000000000000000004D
:10F3C000000000000000000000000000000000003D
:0CF3D00000000000000000000000000031
:040000050001C40131
:00000001FF
